:020000040800F2
:10000000D059002069AC0008A5AA0008A7AA0008DA
:10001000A9AA0008ABAA0008ADAA000800000000C9
:10002000000000000000000000000000AFAA00086F
:10003000B1AA000800000000B3AA0008B5AA000891
:1000400003AD000807AD00080BAD00080FAD0008B8
:1000500013AD000817AD00081BAD00081FAD000868
:1000600023AD000827AD00082BAD00082FAD000818
:1000700033AD000837AD00083BAD00083FAD0008C8
:1000800043AD000847AD00084BAD0008000000007C
:100090000000000000000000000000004FAD00085C
:1000A00053AD000857AD00085BAD00085FAD000818
:1000B00063AD000867AD00086BAD00086FAD0008C8
:1000C00073AD000877AD00087BAD00087FAD000878
:1000D00083AD000887AD00088BAD0008000000006C
:1000E0008FAD000893AD000897AD00080000000038
:1000F0000000000000000000000000009BAD0008B0
:10010000000000009FAD0008A3AD0008A7AD0008E7
:1001100000000000000000000000000000000000DF
:10012000ABAD0008AFAD0008B3AD0008B7AD000837
:10013000BBAD00080000000000000000000000004F
:10014000000000000000000000000000BDAA000840
:10015000BFAD0008C3AD0008C7AD0008CBAD0008B7
:10016000CFAD0008D3AD0008000000000000000083
:10017000000000000000000000000000000000007F
:1001800000000000D7AD00080000000000000000E3
:10019000DBAD0008DFAD000800F5E07002689142B9
:1001A00003D343681A44914202D380680028F5D1F2
:1001B0007047DFF86C17086890B94FF480504860BA
:1001C0004FF480324FF0FF30C86008610420DFF840
:1001D00054378A604861C3F8BC01DFF84C070860F7
:1001E0000120704701F1080313F0070F0EBF002331
:1001F000C3F1080303F007031944D21A8161C260F6
:1002000042F001034B60091D4FF0280C41F802C079
:10021000DFF80C271369C36170472DE9FC4B0746D3
:1002200001F1080010F0070F0FBF8946C0F1080068
:1002300000F0070001EB000902F1080111F0070FBF
:1002400006D002F10800C0F1080000F007000244E7
:100250001546A5EB090009EB0306A0EB030B43F0E1
:100260000303C9F80430AE4228BF01F005FA28792B
:10027000C10758BF01F000FABBF1100F38BF01F001
:10028000FBF9B869854208D1F9688B44C7F80CB00E
:10029000BE614BF00100706051E1786985420AD17E
:1002A000B9688B44C7F808B07E614BF001007060FC
:1002B00046F80BB043E1686800F00301012940F003
:1002C000AC80C008C0000190C0081F2839D8AC68B5
:1002D000D5F80C800090454508BF01F0CDF9A54246
:1002E00008BF01F0C9F968680099C008C000B0EB08
:1002F000C10F18BF01F0C0F9009907F1280000EB09
:10030000C100844206D039698C42C0F08180E26825
:10031000AA427DD1A04506D10098396801238340C7
:100320009943396076E0804506D0396988456FD3B6
:10033000D8F80800A8426BD1C4F80C80C8F808406F
:1003400068E0EC68D5F81880AC420CD0A868396930
:10035000884223D3C268AA4204BFA168A9421DD122
:10036000C460A0601CE005F114010C6834B905F10B
:1003700010010C68A4B101E011460C6804F11402EC
:100380001068002802BF04F1100210680028F3D1A1
:100390003869814202D300220A6001E001F06CF961
:1003A000B8F1000F36D0E96907F5987000EB8100CD
:1003B0000268954208D10460A4B9E869796801220D
:1003C00082409143796025E03869804508D3D8F8A8
:1003D0001010A94214BFC8F81440C8F8104001E03A
:1003E00001F04AF9B4B139698C4211D3C4F81880CC
:1003F000286928B1884226BF2061846101F03CF958
:10040000686938B13969884202D36061846101E06A
:1004100001F032F901996D188B4469684908490067
:1004200069604BF0010070604FEADB0446F80BB0E6
:100430001F2C23D807F1280000EBC4084546BBF168
:10044000100F38BF01F018F9386820FA04F1CA0714
:1004500005D4012101FA04F404433C6007E0D8F814
:100460000800396988422CBF054601F005F9C8F833
:100470000860EE60B560C6F80C8060E05FEA1B20A3
:1004800008BF002123D0B0F5803F28BF1F211ED216
:10049000A0F58072120C02F008029040A0F5805185
:1004A000090C01F004018840A0F580431B0CC2F147
:1004B0000E0203F00203521AD21A984002EBD03215
:1004C000D01D2BFA00F101F0010101EB4201F161B5
:1004D000002307F59872736102EB810033617A683B
:1004E00022FA01F3DC0707D4012303FA01F11143D7
:1004F00079600660B0611DE002681F291DBF4908D0
:10050000C1F119010BFA01F1594600E002465068A9
:10051000C008C000584516D002F11003C80F03EB05
:100520008003490018680028F0D13869834204D359
:100530001E60B261F660B66001E001F09DF809F15D
:100540000800BDE8F68B396990688A4228BF884266
:10055000F3D3C6609660B060F2600020B061EEE751
:100560002DE9FE4F04468B46A5692E4690469946D6
:100570003146FFF711FE0268416802EB010AAAF159
:10058000270111F007000EBF0021C1F1080101F0A1
:1005900007010AEB0100A0F12F0706F110018F42BD
:1005A00038BF374607F11802002101920091A8F1E7
:1005B000280259462046FFF715FE07F1080010F003
:1005C000070F18BF01F058F81B20786007F10801E9
:1005D00004F5E07090E80C5081E80C50C0F800B0D1
:1005E000C0F80480C0F80C9081600722019800993F
:1005F00000E0001D491C00F1080353454260F8D398
:100600000129D8BF01F038F8B74200F09580BF1B30
:10061000301D321DC15949084900D15147F0010030
:1006200070604FEAD70BF751BBF11F0F21D804EBD5
:10063000CB0000F12805A846102F38BF01F01CF8A8
:10064000206820FA0BF1CA0705D4012101FA0BF149
:100650000843206006E0A868216988422CBF8046D4
:1006600001F00AF8AE60C8F80C60C6F80880F560C2
:100670006FE0380A08BF002123D0B0F5803F28BFC3
:100680001F211ED2A0F58072120C02F008029040C9
:10069000A0F58051090C01F004018840A0F58043C9
:1006A0001B0CC2F10E0203F00203521AD21A984038
:1006B00002EBD032D01D27FA00F101F0010101EB6D
:1006C000420104EB8102002302F59870F16173612D
:1006D0003361626822FA01F3DB0707D4012303FACE
:1006E00001F1114361600660B0611DE002681F29DD
:1006F0001DBF4908C1F1190107FA01F1394600E0AF
:1007000002465068C008C000B84216D002F110037B
:10071000C80F03EB8003490018680028F0D1206956
:10072000834204D31E60B261F660B56011E003B08D
:10073000BDE8F04F00F0A0BF0BE0216990688A424D
:1007400028BF8842F3D3C6609560B060F260002095
:10075000B06103B0BDE8F08F2DE9F041704F054660
:100760003868884608B9FFF724FDB96801EB08002E
:100770002F30491E20EA010188457DD205F5D87643
:10078000B06828B1326889188A4275D2884273D31A
:1007900000F0B2FF01001CBF0C6811F1010F6BD01B
:1007A0003068201805F5D87230605368984238BF19
:1007B00018467060A86960BB286908B1814200D200
:1007C0002961316174610020F0614FF0FF303A68B7
:1007D0006A62286205F128020020D260926002F16C
:1007E000080757611761801C10322028F5D34D4847
:1007F000854208BFA4F1280228D055F8040CC0088F
:1008000005EBC002A2F108000A19121A283A0146A3
:100810001CE005F5E070024600E092687AB31368C8
:1008200057681F44B942F8D1137B1F0727D4AB691F
:100830001768BB4223D3D2F804C06744BB421ED220
:10084000A444C2F804C0E868A96922182846FFF742
:10085000C9FC1FE08068C0B103689342FAD1027BF3
:10086000130712D4026801604368E41844604346E9
:100870002846BDE8F041D0E40020BDE8F0812A69B7
:10088000914238BF29610A19E5E70023224628462C
:10089000FFF766FEE8688045EED2A0EB0800A96984
:1008A000E86001EB0802AA6140F00100506048F0E6
:1008B0000300486001F10800BDE8F08130B4184B36
:1008C0001A6882B94FF480525A604FF480344FF066
:1008D000FF32DA601A610422124D9C605A61C5F839
:1008E000BC21114A1A6011F1400F17D28269AAB1D6
:1008F000C368283199420BD200F5E0710C68A2421E
:1009000003D34D682C44A24202D389680029F5D153
:10091000C16999423CBF4FF0FF32C26100F0A8BEEE
:10092000A0180020F01300206859883C2DE9F84FEA
:1009300000258946090AC9F1000B08BF002323D00E
:10094000B1F5803F28BF1F231ED2A1F58072120C83
:1009500002F008029140A1F580531B0C03F0040340
:100960009940A1F58044240CC2F10E0204F0020467
:10097000D21A121BA14002EBD132D11D29FA01F388
:1009800003F0010303EB4203074607F5987858F894
:10099000230030B31F2B0FBF4C465C08C4F1190471
:1009A00009FA04F4AC46594600E064004268D208F3
:1009B000D200A2EB09028A4203D21100054600F0E0
:1009C0006981426910304FEAD47B50F82B00002A2D
:1009D0001CBF824294460028E7D18B466046B0BBDC
:1009E000BDBB012202FA03F35B005842796803435E
:1009F0000B4000F04E81584203405B1E180B00F084
:100A00001000C340590901F00801CB409A0802F0D8
:100A10000402D3405C0804F002040818E3401018F4
:100A2000C3F3400620183044F3401B1858F8230045
:100A30000DE008464168C908C900A1EB0901594504
:100A40003CBF8B46054601690029F2D14069002868
:100A5000F0D1002D00F01D81B868A0EB090083459E
:100A600080F0178139698D42C0F011816868C00833
:100A7000C00009EB0B01884218BF00F0FDFD05EB3B
:100A80000906B54280F00381EC68D5F818A0AC42A5
:100A90000CD0A8683969884223D3C268AA4204BF2F
:100AA000A168A9421DD1C460A0601CE005F1140139
:100AB0000C6834B905F110010C68A4B101E01146CD
:100AC0000C6804F114021068002802BF04F110023F
:100AD00010680028F3D13869814202D300220A60ED
:100AE00001E000F0C9FDBAF1000F36D0E86908EB6B
:100AF000800001688D4209D10460200014D1E869AA
:100B00007968012282409143796026E03869824504
:100B100008D3DAF81010A94214BFCAF81440CAF872
:100B2000104001E000F0A8FDBCB13869844212D346
:100B3000C4F818A0286930B13969884226BF2061FD
:100B4000846100F099FD686938B13969884202D33F
:100B50006061846101E000F08FFDBBF1100F0CD2E9
:100B6000D94449F00300291D6860281D51F8092067
:100B700042F0010240F8092088E049F00300686073
:100B80004BF0010070604FEADB0046F80BB01F2805
:100B90001DD807EBC00101F12804396821FA00F2E1
:100BA000D307A34605D4012202FA00F008433860B7
:100BB00006E0A068396988422CBF834600F05CFDDE
:100BC000A660CBF80C60C6F808B0F4605EE05FEA9F
:100BD0001B2008BF002123D0B0F5803F28BF1F2174
:100BE0001ED2A0F58072120C02F008029040A0F50F
:100BF0008051090C01F004018840A0F580431B0CD2
:100C0000C2F10E0203F00203521AD21A984002EB0C
:100C1000D032D01D2BFA00F101F0010101EB4201AD
:100C2000F16100227261326108EB81007A6822FA78
:100C300001F4E30707D4012404FA01F111437960B8
:100C40000660B0611DE002681F291DBF4908C1F19F
:100C500019010BFA01F1594600E002465068C0083C
:100C6000C000584518D002F11003C80F03EB8003F1
:100C7000490018680028F0D13869834204D31E6007
:100C8000B261F660B66001E000F0F6FC14E100F03D
:100C9000F3FC0EE18B46A2E6396990688A4228BFD0
:100CA0008842F1D3C6609660B060F2600020B06107
:100CB000ECE72DE9F84F0646884671684842014046
:100CC000491E080B00F01000C1404A0902F008025A
:100CD000D1408B0803F00403D9404D0805F002050C
:100CE0001018E9401818C1F34004281806F5987A3E
:100CF0002044E14009185AF821104868C008C00093
:100D00000D46A0EB080909E001464868C008C0008C
:100D1000A0EB080048453CBF81460D460869002805
:100D2000F2D149690029F0D130698542C0F0BF8015
:100D30006968C90808EB090BC900594518BF00F0DC
:100D40009BFC05EB08008542009080F0B080EF68C6
:100D5000AC69AF420CD0A8683169884223D3C2681D
:100D6000AA4204BFB968A9421DD1C760B8601CE09F
:100D700005F114010F6837B905F110010F68A7B12B
:100D800001E011460F6807F114021068002802BF45
:100D900007F1100210680028F3D13069814202D3B4
:100DA00000220A6001E000F067FC002C31D0E86905
:100DB0000AEB800001688D4208D107608FB9E869AD
:100DC0007168012282409143716022E0306984425F
:100DD00005D32169A94214BF6761276101E000F0D2
:100DE0004BFCB7B13069874211D3BC61286930B17F
:100DF0003169884226BF3861876100F03DFC68692F
:100E000038B13169884202D37861876101E000F02E
:100E100033FCB9F1100F0BD24BF00300291D6860B1
:100E2000281D51F80B2042F0010240F80B203DE054
:100E300048F003012A1D696049F0010042F80800EA
:100E4000009941F80990D6F808804FEAD80BBBF119
:100E5000200F28BF00F010FCB8F1000F22D006EBE5
:100E6000CB00776900F12804A246B8F1100F38BF13
:100E700000F002FC306820FA0BF1CA0705D401210A
:100E800001FA0BF10843306006E0A068316988423E
:100E90002CBF824600F0F0FBA760CAF80C70C7F8C0
:100EA00008A0FC60C6F808900098706104E000F0AB
:100EB000E3FB0020BDE8F28F05F10800BDE8F28FEA
:100EC0002DE9FE4F0546AFF30080F52DDFF89C6756
:100ED00080F004810B2D31BF10250B35ED08ED009E
:100EE0003068EC08E04010F0030F46D0C04300F03B
:100EF0000100041906F1280000EBC408E700D8F847
:100F000008506868C008C000B84218BF00F0B4FBC1
:100F1000D5F80890454508BF00F0AEFB4D4508BF29
:100F200000F0AAFB6868C008C000B84218BF00F013
:100F3000A3FBC84507D13068012101FA04F420EA77
:100F4000040434600DE03069814508D3D9F80C10F1
:100F5000A94204D1C8F80890C9F80C8001E000F05B
:100F60008BFB47F00300291D6860281DCA5942F019
:100F70000102C25105F10804F8E0B168A94280F00D
:100F8000BE80002800F0A1804FF0010808FA04F1AB
:100F9000490000FA04F4484201430C406042044016
:100FA000641E200B00F01000C440610901F008012C
:100FB000CC40A20802F00402D440630803F002030C
:100FC0000818DC401018C4F3400718183818FC4003
:100FD000241806F1280000EBC40AE700DAF80890AC
:100FE000D9F80400C008C000B84218BF00F044FBA4
:100FF000D9F808B0D14508BF00F03EFBD94508BF7D
:1010000000F03AFBD9F80400C008C000B84218BF8D
:1010100000F032FBDA4506D1306808FA04F420EA21
:10102000040434600DE031698B4508D3DBF80C0013
:10103000484504D1CAF808B0CBF80CA001E000F094
:101040001BFB7F1B45F0030009F10402C9F80400F3
:1010500047F00101515109EB05020192D751B468E3
:101060004FEAD40ABAF1200F28BF00F005FB34B3D1
:10107000CDF800A006F12800756900EBCA0AD34636
:10108000102C38BF00F0F8FA3168009821FA00F20D
:10109000D30704D408FA00F00843306007E0DAF818
:1010A0000800316988422CBF834600F0E5FACAF88F
:1010B0000850CBF80C50C5F808B0C5F80CA0B760C4
:1010C00009F108040198706150E07068C0B32946C6
:1010D0003046FFF7EEFD040011D047E015F1400F58
:1010E00028BF4FF0FF350AD20B35ED087068ED00D0
:1010F00028B129463046FFF719FC040036D1B06804
:10110000A8421DD3411B726910290AD3501970617E
:10111000B16041F001034360415045F00305556063
:101120000BE00021B1607161131D40F003015160BB
:10113000111D1C5844F001040C5002F1080415E084
:10114000F06885420DD2401BB169F0604A19B26166
:1011500040F00100506045F003054D6001F10804C6
:1011600004E029463046FFF7F7FA0446AFF3008063
:101170002046FFF7EEBA002800D170472DE9F0476E
:10118000A0F10805AFF30080DFF8E06431698D421B
:10119000C0F05982686800F00302012A00F053820F
:1011A000C2084FEAC209C20705EB090839D42C6806
:1011B00010F0030F00F04982604205448D42A144C3
:1011C000C0F041827069854200F0C680E408202C9E
:1011D0005ED2D5F80CA0AF68554508BF00F04CFAB8
:1011E000BD4208BF00F048FA6868C008C000B0EB14
:1011F000C40F18BF00F040FA06F1280000EBC4004D
:10120000874205D031698F423FD3FA68AA423CD168
:10121000BA452CD13068012101FA04F420EA040413
:101220003460454580F00F82D8F80440E00740F173
:101230000A82A10700F16881B069804540F09F8073
:10124000F168B5618944C6F80C9049F00100686006
:1012500071698D4202D100207061B060F06948452B
:1012600080F0F38100213046FFF728FBEDE1824555
:1012700006D03069824508D3DAF80810A94204D1B3
:10128000C7F80CA0CAF80870CBE700F0F5F9C8E77A
:10129000EC68AF69AC420BD0A868884222D3C16821
:1012A000A94204BFA268AA421CD1C460A0601BE08E
:1012B00005F11402146834B905F1100214689CB1E8
:1012C00001E01A46146804F114031868002802BFEC
:1012D00004F1100318680028F3D18A4202D30021D8
:1012E000116001E000F0C8F9002F9AD0E96906F515
:1012F000987000EB81000268954209D104602000DB
:1013000011D1E8697168012282409143716088E7D8
:101310003069874205D33969A94214BF7C613C61B9
:1013200001E000F0A9F9002C3FF47BAF31698C4259
:10133000ABD3A761286928B1884226BF20618461A8
:1013400000F09AF9686900283FF46BAF3169884270
:101350009BD36061846164E798F8040000F00300A7
:1013600003287FF45EAFC6F8089049F00101D8F871
:10137000040040084000C8F8040069600AE0706991
:1013800080450AD1B16875618944C6F8089049F072
:101390000100686045F8099057E1E408E400A144C1
:1013A000E408202C3AD2D8F80CA0D8F80870D04520
:1013B00008BF00F061F9B84508BF00F05DF9D8F842
:1013C0000400C008C000B0EBC40F18BF00F054F90F
:1013D00006F1280000EBC400874207D031698F4234
:1013E000C0F08580FA68424540F08180BA4507D157
:1013F0003068012101FA04F420EA0404346078E042
:10140000824506D03069824571D3DAF8081041452B
:101410006DD1C7F80CA0CAF808706AE0D8F80C4083
:10142000D8F8187044450DD0D8F8080031698842C2
:1014300023D3C268424504BFA16841451DD1C460A1
:10144000A0601CE008F114010C6834B908F1100127
:101450000C68A4B101E011460C6804F11402106894
:10146000002802BF04F1100210680028F3D130698F
:10147000814202D300220A6001E000F0FDF8002F53
:1014800037D0D8F81C1006F5987000EB8100026880
:1014900090450AD10460200012D1D8F81C00716870
:1014A000012282409143716023E03069874205D375
:1014B0003969414514BF7C613C6101E000F0DCF812
:1014C000BCB131698C4212D3A761D8F8100028B1A1
:1014D000884226BF2061846100F0CEF8D8F814005D
:1014E00038B13169884202D36061846101E000F063
:1014F000C3F849F00100686045F8099071698D42B0
:101500000BD1C6F80890A0E064086400C8F8044055
:1015100049F00100686045F809904FEAD907202F8B
:1015200022D206F1280000EBC704A046B9F1100F43
:1015300038BF00F0A1F8306820FA07F1CA0705D4D7
:10154000012101FA07F70743376006E0A068316917
:1015500088422CBF804600F08FF8A560C8F80C5078
:10156000C5F80880EC6070E05FEA192008BF002130
:1015700023D0B0F5803F28BF1F211ED2A0F5807276
:10158000120C02F008029040A0F58051090C01F005
:1015900004018840A0F580431B0CC2F10E0203F049
:1015A0000203521AD21A984002EBD032D01D29FA07
:1015B00000F101F0010101EB420106F598720023F0
:1015C00002EB8100E9616B612B61726822FA01F321
:1015D000DC0707D4012303FA01F1114371600560B0
:1015E000A8611DE002681F291DBF4908C1F119014A
:1015F00009FA01F1494600E002465068C008C000FF
:10160000484526D002F11003C80F03EB80034900C0
:1016100018680028F0D13069834204D31D60AA61A4
:10162000ED60AD6001E000F027F8306A401E3062E6
:101630000BD1D6F8C80100E080680028FCD14FF03B
:10164000FF30306201E000F017F8AFF30080BDE832
:10165000F087316990688A4228BF8842E3D3C56029
:101660009560A860EA600020A861DEE7F013002022
:1016700030BC002070470000012000F053B8F0B4E7
:101680000246106895681318506803EB5004C007B1
:101690001DD54D441BE013F8017B05F8017B491E65
:1016A000F9D1A0B1B60813F8011B06F00306032E0A
:1016B00008BF13F8016B01EB06214942801C294445
:1016C00005D011F8016B05F8016B401EF9D1A3425A
:1016D0000ED013F8016B16F0030104BF13F8011BC1
:1016E000C91C30090F28DAD113F8010B0F30D6E7E7
:1016F000F0BC02F10C0070470749086808B10020EF
:1017000070470648C008C00008600549C908C900FC
:10171000091A0160704700BFC4190020D759002082
:10172000D079002080B500F007F8024A1100182097
:10173000ABBEFBE72600020080B500F054F80200C3
:101740000023DB431068984204D011000220ABBE96
:10175000002010605068984204D0111D0220ABBEDA
:101760000020506001BD0000F0B583B0040000F01F
:101770003AF8A10047183D680026F643B54216D155
:1017800000F01AF83D68B5420FD100BF09A00090E3
:10179000002C01D1002000E00420019003200290E1
:1017A00069460120ABBE05003D6000F014F828003A
:1017B00003B0F0BD3A7474000C480121BFF35F8F91
:1017C000D0E84F3FC0E8421F002AF9D1BFF35F8F36
:1017D000002BF3D170470548BFF35F8F00210170E4
:1017E000BFF35F8F7047024870470000CB1900209D
:1017F000400300202DE9F04F0FF2A41CA1B0DCE95A
:101800000089CDE900892A9DDFF8DC9B0491002442
:101810008DF843500D944FF0FF38824616461F4610
:101820000FE0B3462C461BF8011B0498D047002854
:10183000049000F0A2800D98401C641E0D90F2D11F
:1018400076193078252808D10021002207910892C6
:1018500009910A920B910C920DE06A46414630467E
:1018600000F0FFFF050001D10D98A1E0D9D50125B9
:10187000E6E741F0010116F8010F2028F9D02328EE
:101880000CD02B2804D02D2805D0302809D076E0A4
:1018900041F00201EFE741F00401ECE741F00801FB
:1018A000E9E741F01001E6E70F9209E00F9848459B
:1018B00005DA00EB800402EB4402303A0F92761C0A
:1018C0003278A2F130000A28F0D330782E2818BFE1
:1018D000CDF8388022D116F8010F2A2807D13868B0
:1018E0003860761C50F8042B38600E9216E02D28D4
:1018F0000CBF761C002000220E920AE040B90E9A1E
:101900004A4505DA02EB820403EB4403303B0E93B5
:10191000761C3378A3F130020A2AEFD3ADF84010D9
:1019200021A0317800F0AEFF08B116F8010B8DF858
:1019300042009DF84200682804D1307868280AD116
:10194000622105E06C2804BF30786C2803D1712136
:101950008DF84210761C12A806903A4616F8013B04
:1019600002A9504600F064F838B912AA02A95046FC
:1019700000F0C8F900287FF564AF404618E02A2837
:1019800092D13A683A6052F8040B3A6000280F90FE
:1019900003D540420F9041F00401761C95E700000A
:1019A0000000000000000000686A6C747A4C0000BF
:1019B00021B0BDE8F08F622820D0682811D06A28B5
:1019C00003D06C2827D0712825D10868C01D20F0CD
:1019D00007000860D0E90023083008601946104667
:1019E0007047002A0A680A60106803D0121D0A6056
:1019F00000B217E0121D0A6080B217E0002A0A68E0
:101A00000A60106803D0121D0A6040B20AE0121D7D
:101A10000A60C0B20AE0002A0A680A60106803D0AF
:101A2000121D0A60C1177047121D0A60002170471D
:101A30007CB50D4611461C462E69B4F1250200F016
:101A40004F811C3A00F08480121F022A40F28080ED
:101A50000E3A00F00981521F59D0093A78D0921EEF
:101A600016D0521E35D0521E022A71D9121F30D004
:101A7000521F00F09880521E49D0521E00F0E280A2
:101A8000D21E00F0FF80921E41D0D21E3FD02DE129
:101A900095F83A406C2C09D06869421C6A610A6862
:101AA0000A6052F8043B0A60335429E10A680A606C
:101AB00052F8043B0A600093002201924FF0FF337A
:101AC0002B636A46294600F098F9002840F11881F6
:101AD00003E195F83A000122FFF76DFFC5E9000127
:101AE000002904D56869411C69612D220DE0288F09
:101AF000810704D56869411C69612B2205E0C00794
:101B000021D56869411C6961202232541BE095F897
:101B10003A000022FFF74FFFC5E9000195F83800B1
:101B2000010710D5D5E90023002B08BF002A0AD0F1
:101B300044F02000782806D1686930213154401CD7
:101B4000421C6A613454214668693044E86087E089
:101B50000868C01D20F007000860D0E900230830A5
:101B60000860C5E90023D5E90001C80F04D0686901
:101B7000411C69612D220DE0288F810704D5686919
:101B8000411C69612B2205E0C00704D56869411C2E
:101B900069612022325468693044E8602146284651
:101BA00000F036FAACE005F13A02507820B14FF07F
:101BB000FF340FF6043074E01078622808D06828EB
:101BC00024D06A2812D06C282ED071280ED02BE099
:101BD0000A680A6052F8040B0A6020B94FF0FF341B
:101BE0000FF6EC205DE0E96A017089E00A680A609E
:101BF00052F8040B0A6020B94FF0FF340FF6D020E2
:101C00004FE0EA6AD317C0E9002379E00A680A6066
:101C100052F8040B0A6020B94FF0FF340FF6B020E1
:101C20003FE0E96A01806BE00A680A6052F8040B41
:101C30000A6020B94FF0FF340FF6942031E0E96AD2
:101C400001605DE00A680A6052F8040B0A60002136
:101C500020F0000221F0FF33C5E90023EE60782177
:101C6000284600F02DF94BE06C2285F83A200B68ED
:101C70000B6053F8042B0B6052BB4FF0FF340FF690
:101C800084200EE095F83A206C2AF0D008680860AD
:101C900050F8044B0860EC603CB94FF0FF340FF68D
:101CA000482000F00DFE201A76BD2E6B002E04D5C4
:101CB000204600F025FE044608E03246002120467A
:101CC00000F048FE002814BF041B3446AC6117E046
:101CD000294600F092F8002812D54FF0FF3076BD6B
:101CE0006869411C69612522325409E06969481C10
:101CF000686125227254210002D0431C6B61345468
:101D0000002076BD2DE9F0410E4605469046726BE7
:101D10007069316AB46A121AB069521A716A121A79
:101D2000F069521A121A96F83800141B41070DD4A4
:101D3000002C0BDD2746B0682021A8470028B060A2
:101D400057D0F06A401C7F1EF062F4D1736942469E
:101D50003146284600F098FC00284AD1376A002F07
:101D60000ADDB0683021A8470028B06041D0F06A91
:101D7000401C7F1EF062F4D1B369F26831462846F8
:101D800000F082FCA8BB776A002F09DDB068302123
:101D9000A847B06068B3F06A401C7F1EF062F5D1BE
:101DA000F068B169F36942183146284600F06CFCCE
:101DB000F8B9B76A002F09DDB0683021A847B060D4
:101DC000B8B1F06A401C7F1EF062F5D196F8380079
:101DD00041070BD5002C09DDB0682021A847B06071
:101DE00038B1F06A401C641EF062F5D10020BDE8F5
:101DF000F0814FF0FF30BDE8F0812DE9F8470D4646
:101E0000A3B02F6B002F0646904648BF6FF00047E7
:101E10000FF60C1400F0CAFDD4E90023696B4018DA
:101E2000CDE90123812828BF4FF0FF3042D20024A2
:101E3000002F33DDD8F8001001AA684600F019FD24
:101E40008146B9F1000F38D4D8F8000010B9B9F1C3
:101E5000010932D44F4521DB6869484481280AD3FF
:101E60000021696303AA29463046FFF74BFF0400AF
:101E700014D40020686103ABD5F814A04A46694623
:101E800003EB0A0000F0A4FDCA44C5F814A058F8FA
:101E9000040B002818BFA7EB0907C9D14CB903AA46
:101EA00029463046FFF72EFF044614B9002068612A
:101EB0006863204624B0BDE8F0874FF0FF34F8E7B0
:101EC0002DE9FC4307466F293E6908BF082405D069
:101ED00041F02000782814BF0A2410243C25D7E9BB
:101EE0000023642918BF69299046994605D1002B23
:101EF00003D5D8F1000869EB4909B9F1000F08BF13
:101F0000B8F1000F1FD1386BE8B9082C4CD197F805
:101F10003800010748D530203B2586F83B0043E0D8
:101F200000280ED597F8380000F01400102808D1CA
:101F30007B6B7969386A5B1A1B1A9A1A002AC8BF28
:101F40003A62BDE8F3838DF80010404649462246C8
:101F5000E31700F091FD3032D0B26D1E3A280195A2
:101F600004DB9DF80000A0F151018A18725540462B
:101F700049462246E31700F07FFD80465FEA0109EB
:101F800008BFB8F1000F03D0F86871198842DCD39C
:101F9000082C09D197F83800010705D5705D302865
:101FA00002D06D1E30207055C5F13C02BA61711926
:101FB000F960386B8242B3DA821A3A624FF6EF70F8
:101FC000398F01403987BDE8F3832DE9D0430646B8
:101FD0000F4614464FF00008DFF8109412E0E007B7
:101FE00007D542464B463046394600F05DFE064670
:101FF0000F464046494642464B4600F055FE6410A7
:1020000080468946002CEAD130463946BDE8D08367
:102010002DE9F84F05468A464AF020048EB0D5E9EE
:102020000089612C02AE09D0286B002848BF062029
:1020300003D408BF672C01D101202863D5E9000132
:102040004A005215521C0DD10B030BD0AAF16101AD
:1020500003201A29A86102D20FF2CC6110E00FF21E
:10206000CC610DE04A005215521C0ED10B030CD16D
:10207000AAF1610103201A29A86116D30FF2B461F5
:10208000E868032200F0A4FCC0E1CDE90C01DDE921
:102090000C2323F00043B3F5801F0DD20027002B43
:1020A00008BF002A019703D111E00FF28461E7E72E
:1020B00001AA00F0CBFE0AE0CD48CE4900EB135058
:1020C000DDE90C2301900B40CB4910461943C5E9CB
:1020D0000001612C0DD1E86830210170821CBAF139
:1020E000610FEA600CBF7821582141706869801C3B
:1020F0006861D5E90001CDE90C01DDE90C2333F07D
:10210000004104BF0028002300F04881612C40F00A
:10211000A080286B494600284CBF4FF0210B00F1EE
:10212000010B404600220023DDE90C8900F0C6FEC9
:1021300001990BF1010738BF89F00049091F002FF1
:1021400001918DF808200DF1090040F33581A9496E
:1021500000910646404649460022002300F0C6FE94
:1021600080F029814800400D00F11C0211D0002AA6
:102170000FDD40F2FF739A4205DBA04909F00040F1
:102180000143002011E0009B194041EA0251404602
:102190000BE028F0000039F0004108BF00280FBF15
:1021A00049461C22494600F0B9FE8046894600F0A7
:1021B00053FFFF1F002F044609DD00F06BFF0246AE
:1021C0000B464046494600F077FF80468946F01DA1
:1021D000072104E004F00F0200F8012D2411002C67
:1021E00001DD491EF6D5491E5CBF002200F8012D15
:1021F000F9D5DCE00020194602AA0A4400E05B1E83
:1022000012F80149491E8442F9D00F2804D10DF17A
:102210000900425C521C4254002904D50198001D5B
:1022200002AE5B1C0190581E0CD43118AAF13A047E
:102230000A783032D7B23A2FA8BFA218401E01F850
:102240000129F5D5286B002840F1A780591E296384
:10225000A3E001996A4A47F29750414391FBF2F299
:10226000019229F00046D2F1070204DD40463146D2
:10227000FFF7ABFE0AE0524200206249FFF7A5FEDD
:1022800002460B464046314600F088FF8046662CE9
:10229000286B06BF019F0A3706273F18142FC8BFB7
:1022A000142730208DF8080089460DF1090000E060
:1022B0003046002F34DD06464046494601F092F88C
:1022C00001460A4606F1080304200A26B2FBF6F688
:1022D00006EB860EA2EB4E02303203F8012C0A22E6
:1022E000B6FBF2F202EB820EA6EB4E063036401E33
:1022F00003F8026DE9D1083F002F03F10806D7DD8E
:10230000084601F083F802460B464046494600F075
:10231000D3FE00223C4B00F0C7FC80468946CBE749
:102320000DF10901401A0DF1090604E00199491E59
:10233000401E0191761C31783029F7D0662C02D1ED
:102340000199491C03E0652C0CBF012100212B6B76
:10235000CB189842B8BF431E002B1ED4834204DA28
:10236000F05C3528A8BF392000DA30201946721EEB
:1023700002EB010800E05B1E18F80199491E814537
:10238000F9D0392802D1705C401C7054002904D562
:102390000198401C16465B1C0190019800B2009009
:1023A0001BB232465146284600F034F82EE0C61DD6
:1023B000002F3FF7CFAE30460DF10901401A03461A
:1023C0005845C8BF5B46002B0DF109063FF53AAFF3
:1023D0008342BFF60FAF0DF10900C15C07297FF7FB
:1023E00009AF0F2007E70000CBCCCC0C0000244045
:1023F00002FCFFFFFFFF0F800000E03F0000F07FC6
:10240000A08601000000F03F84D797410FB0BDE8DF
:10241000F08F00002DE9F84783B006468A4617463C
:10242000984600F028FAB8F1000F406A356B90F832
:10243000009002DC4FF00108BFA74AF02000BDF970
:102440003040662808BF641C15D0672840F084809F
:1024500014F1040FC0F28680AC4280F2838096F8BB
:102460003800641C010702D4A845B8BF454620B215
:102470002D1A48BF00250FFA84FAF068B169BAF145
:10248000000F25DC4A1C30234354002D03DC96F852
:102490003800010703D5F06800F80290521C15EBD4
:1024A0000A0FB8BF6C4220B2441941424445B8BF3C
:1024B000A046B26171620FFA88F5F561F068B36900
:1024C0002A463946184400F083FA641BB462C4E01B
:1024D00022B29045084417DA4246394600F078FAAD
:1024E000B0694044B061AAEB0801002D716203DCC1
:1024F00096F838100A0705D5F16801F80090F069E0
:10250000401CF061B562A8E0394600F061FAB0699C
:10251000002D5044A8EB040803DC96F838100A0795
:1025200003D5F16801F80090401CB0610FFA88F003
:102530008542F368B069B8BFA8460FFA88F207EB86
:102540000A01184400F044FAB1690FFA88F0014416
:10255000B161281A706280E0BAF1610F14D14FF0B6
:10256000700A16E0A84504DA96F838100A0758BF32
:1025700045466D1E48BF0025BAF1670F14BF4FF0E6
:10258000450A4FF0650A04E0BAF1410F08BF4FF069
:10259000500AB169F368481CB061002D17F8012B8F
:1025A0005A5403DC96F838100A071BD5F168431C0F
:1025B000B36101F80090002D14DDA8F101080FFAB5
:1025C00088F039468542F768B8BFA8460FFA88F206
:1025D000F81800F0FDF9B0690FFA88F108446D1A97
:1025E000B0617562F068B1690844002C80F800A001
:1025F00003D42B224270811C03E02D2141706442E0
:10260000811C00206A460AE023460A2493FBF4F466
:1026100004EB8405A3EB450302F8013B401C24B204
:10262000002CF1DC012806DC4AF02002652A04BFF8
:10263000302201F8012B48B9302001F8010B07E0E6
:10264000401E1DF80030303301F8013B0028F7DC54
:10265000F268B0691044091AF16196F8380000F088
:10266000140010280DD17269B169706A8A18F16975
:102670008218B06A8A188218706B8242BCBF821AB4
:10268000326204B0BDE8F087F8B505460E4617463D
:102690001C46002074B117F8011BB068A847B06051
:1026A00030B1F06A401CF0620020641EF3D1F2BD2C
:1026B0004FF0FF30F2BD00007072696E74665F7398
:1026C0003A20256E20646973616C6C6F77656400D5
:1026D0007072696E74663A2062616420256E2061B2
:1026E0007267756D656E74007072696E74665F7383
:1026F0003A2062616420257320617267756D656E92
:10270000740000007072696E74665F733A206261D3
:102710006420256C7320617267756D656E740000AE
:1027200000000000000000006E616E004E414E008F
:10273000696E6600494E4600300030B4002513E053
:1027400050F8042BD30744BFA9F101039A18091FBD
:10275000042942F8045BFAD213468C0744BF158063
:102760009B1CC90748BF1D7050F8041B0029E7D106
:1027700030BC7047613807E005E0A0F161011A291B
:1027800001D20120704741381A288041C00F70479C
:10279000A0F10901052901D3202801D101207047AA
:1027A00000207047A0F141011A2938BF203070473E
:1027B000A0F161011A2938BF203870472F487047AF
:1027C00070B45368D418042B09DA41B1057804F8C1
:1027D000015B10F8016B16B15B1C491EF3E75360F7
:1027E00070BC704738B514461D4661B1FFF7E8FF6D
:1027F00061686A6B204690476FF00102811A02D02F
:10280000491E01D001E024E026E00021616032BDD4
:1028100038B50446084611001D4615D02A46FFF774
:10282000CFFF6968049B1CB95A6B2846904704E0A7
:102830000A469B6B2946204698476FF00102811A91
:1028400002D0491E01D001E003E005E000216960EB
:1028500032BD6FF0010032BD4FF0FF3032BDDA6B98
:102860001047064BBEE71CB5044C0094FFF7D0FFA1
:1028700016BD024BF3E7024870470000000200203B
:10288000C8010020C9B202788A421AB11CBF10F8F0
:10289000012FF9E718BF00207047B1F5807F02D300
:1028A0004FF0FF3070470170012070470A780260D6
:1028B000087800E00078401E8041C043C00F704798
:1028C00080B500B906A005490B681BB12222002182
:1028D000984701E0FEF7D0FE222002BDC01900207B
:1028E000636F6E73747261696E742068616E646C7C
:1028F00065723A20626164206D657373616765007B
:1029000000F10103810704D010F8011B820781B197
:10291000FAD10268A2F10131914311F0803104BF74
:1029200050F8042FF6E709BAB1FA81F100EBD100B3
:10293000401CC01A704703681AB95A1E0260084644
:102940007047197811B94FF0FF307047591C01607A
:1029500018787047C9B2830706D0521E22D310F8E8
:10296000013B9942F7D11FE0083A13D302F1040268
:1029700041EA012141EA014150F8043B121F21BF05
:102980004B40A3F1013C2CEA030C1CF0803FF3D038
:10299000C9B2001F083210F8013B521E28BF91EA4D
:1029A000030FF8D818BF0120401E704780B5FFF70D
:1029B00005FF006C02BD8268521C8260426832B121
:1029C0000268531C036011704168491E41607047E2
:1029D00062B38B0708D0521E11F8013B00F8013B8F
:1029E00000F024808B07F6D1830740F0208000BFE1
:1029F000103A07D330B4B1E83810103AA0E83810D4
:102A0000F9D230BC530724BFB1E80810A0E8081081
:102A100044BF51F8043B40F8043BD20724BF31F8CF
:102A2000022B20F8022B44BF0B7803707047121F53
:102A300017D35B0009D151F8043B20F8023B1B0C73
:102A4000121F20F8023BF6D20BE051F8043B00F8CD
:102A5000013B1B0A20F8023B1B0C121F00F8013B34
:102A6000F3D238BF121D521E24BF11F8013B00F8EB
:102A7000013BF8D870470000BBBBE1B1B2F5803F25
:102A800080F07E80022A1ED98C46B1FBF2F102FB57
:102A900011C31B0443EA1043B3FBF2FC02FB1C33DB
:102AA00080B240EA0343B3FBF2F002FB103240EA8B
:102AB0000C4000237047022A05D98446B0FBF2F08F
:102AC00002FB10C270474AB105D100F0010249086B
:102AD0005FEA3000704700220023704700F0A4BC7A
:102AE0000B000200002100207047904271EB030CA4
:102AF000F6D3B3F5803F2FD2F0B5B3FA83F7B1FA2E
:102B000081F4A7F10F0E3D1B5340CEF1200602FACF
:102B10000EF2F3415340B5F10F0746D80F3C2C4459
:102B20004140C4F12006A040F1414140B1FBF3F621
:102B300003FB1611A2FB0645001BA94102D2761E1B
:102B40008018594180EA010221FA0EF362FA0EF26E
:102B500000215A403046F0BD30B4B1FBF3FC03FB1A
:102B60001C11A2FB0C45001BA94103D2ACF1010CC6
:102B70008018594130BC02460B4660460021704720
:102B8000B2F1807F65D3F0B5B2FA82F7B1FA81F481
:102B9000C7F10F063D1B22FA06F307F1110EF241B1
:102BA00020355A40B5F10F07B8D94140C4F120068D
:102BB000A040F1414140B1FBF3FC03FB1C11A2FB1F
:102BC0000C45001BA94103D2BCF1010C80185941EE
:102BD0000F2F12D30F3FC90341EA5041B1FBF3F667
:102BE00003FB1611A2FB0645D4EBC030A94102D26B
:102BF000761E8018594146EACC3C07B34140C7F1E4
:102C00002006B840F1414140B1FBF3F603FB161139
:102C1000A2FB0645001BA94102D2761E801859412D
:102C200080EA010221FA0EF3C7F1200462FA0EF2E3
:102C30000CFA07F05A402CFA04F13043F0BD80EA58
:102C4000010221FA0EF3002162FA0EF260465A40A8
:102C5000F0BD8C46B1FBF2F102FB11C31B0243EA4B
:102C60001063B3FBF2FC02FB1C331B024CEA002096
:102C700043EA1063B3FBF2FC02FB1C331B024CEA79
:102C8000002043EA1063B3FBF2FC02FB1C331B027F
:102C90004CEA002043EA1063B3FBF2FC02FB1C3257
:102CA0004CEA002000237047B0B581EA030C0CF019
:102CB000004C40F2FF7515EA11541DBF15EA135779
:102CC000AC42AF4239E0E41923EA455343F48013A0
:102CD000C90241F0004141EA505EC7021100A7FB62
:102CE000020200284FF00000EEFB01204FF000012F
:102CF000E3FB072118BF42F00102401800214941BF
:102D0000E3FB0E01A4F580640F0302D252004041A0
:102D1000494154F101046CDD470872F1004250F161
:102D2000000051EB0451A1F580115CBF41EA0C0198
:102D3000B0BD4CEA05510020B0BD05EA1357AC42C6
:102D400014BFAF4241E050EA410E1CBF52EA430EAD
:102D500002E061460020B0BD24423C441BD15FEA42
:102D6000070EF6D0090302BF01460020AEF1140E93
:102D7000B1FA81F7AEEB070401FA07FE0C37C7F191
:102D8000200100FA07F7C8404EEA000E23EA455337
:102D900043F48013A2E733F00043B3FA83F704BF90
:102DA000B2FA82FE77440B3FE41BB7F1200E2FBF2F
:102DB00002FA0EF3BB40C7F1200E22FA0EFE38BF16
:102DC00043EA0E03BA40641C82E750EA410E14BF86
:102DD00052EA430E6FF000014FF4001717EB430F58
:102DE0008ABF194617EB410FB5E74CEA05510020A1
:102DF000B0BDD4F10104B4F120070FDAC4F120070B
:102E0000520828BF42F0010210FA07F501FA07F74D
:102E1000E1BF2A43E0403843E1400FE0352C98DC25
:102E2000C7F1200452EA400220FA07F218BF42F02C
:102E3000010231FA07F0A1400A43002172F1004279
:102E400050F1000051EB0C01B0BD000010B514466C
:102E500000F002F8226010BDC1F30A5343B14A00EA
:102E600012F5001F28D2A3F2FE32A1EB02517047E7
:102E700050EA410C20D001F0004C31EA0C01B1FACB
:102E800081F204BFB0FA80F3D2180B3AB2F12003FA
:102E90002CBF00FA03F1914041EA0C013EBFC2F1A0
:102EA000200C20FA0CF319439040524240F2FD33BB
:102EB000D21A01EB03517047002270474FF4001CF7
:102EC0001CEB410F94BF1CEB430F09E041EA030CDC
:102ED00050EA4C0C52EA0C0C03D2994208BF9042C3
:102EE000704714BF8B428242704700004FF4001CB1
:102EF0001CEB410F94BF1CEB430F09E041EA030CAC
:102F000050EA4C0C52EA0C0C03D28B4208BF8242AE
:102F1000704714BF9942904270470000124254D447
:102F200040F2FF7C1CEA11530FD0634531D09B184F
:102F300063453CBF01EB0251704701F0004141EA9B
:102F40000C510020AFF30080704750EA410320D0BD
:102F500001F0004C91EA0C011CD0B1FA81F30B3B5B
:102F60009A420DD9D21A994051EA0C01C3F1200CB2
:102F700020FA0CFC61449840531C40F2FF7CD7E7D8
:102F8000914041EA0C01C2F1200C20FA0CF31943E4
:102F900090407047B0FA80F31533202BE0D3202AFD
:102FA000EED3203A203B9A4209D9D21A00FA03F113
:102FB00041EA0C010020531C40F2FF7CB8E700FA04
:102FC00002F141EA0C0100207047524240F2FF7CBE
:102FD0001CEA11530DD06345DBD0B2EB030C3CBFB0
:102FE000A1EB025170470CF1010221EA035141F4B7
:102FF000801150EA410CCCD001F0004C352A27DC7E
:1030000030B481EA0C01B2F1200309DAC2F12003E5
:10301000044601FA03F5D0402843D1409C400CE01F
:10302000C3F12002450020FA03F418BF44F0010464
:1030300021FA03F091400C43002174F1004550F156
:10304000000051EB0C01244230BC7FF47BAF704791
:103050006146002076E70000C1F30A5340F2FE32D9
:103060009B1A14DDD3F120034FEAE17208DDC90297
:1030700041EA505141F00040D8408018504070471C
:1030800003F2E13010B1D24382F0004070470020DB
:1030900070470000C11768B14840401AB0FA80F28A
:1030A0009040D21CC907C2F5846241EA025202EB89
:1030B000D02140057047000070B44FF0004591EA00
:1030C000030F40F1BB816B40841A71EB030603D2FE
:1030D000001BB141121973414FF4001C1CEB410F4E
:1030E00034BF7CEB430442E00C0DA4EB1356352EA9
:1030F0004FDC45EAC323DB0A45EAC121C912B6F118
:1031000020050DDD63FA05F6EB4086EA0305124261
:1031100018BF45F00105C01851F100010CD213E0B1
:1031200062FA06F5F2405540F3415A40B340F3408D
:103130005A408018594107D349085FEA30005FEAD6
:10314000350528BF45F0010501F58011420875F1EC
:10315000004250F1000041EB04514E0016F5001FF3
:1031600070BC38BF70470020090D090570471CEB83
:10317000410F10D252EA43060BD0BCEB410F05D8E9
:103180000C0DAB43661E342EB6DD02E0AB43801857
:10319000594170BC704770BC70470000F0B540F2F8
:1031A000FF7581EA030C0CF0004C15EA11541DBFA9
:1031B00015EA1357AC42AF42E5E0BC41C1F313013D
:1031C000C3F31303801A994143F4801304D2641E9D
:1031D0004000494180185941C90241EA5051B1FBB0
:1031E000F3F603FB1611A2FB0675D7EBC020A9412D
:1031F00002D2761E80185941C90241EA5051B1FBF2
:10320000F3FE03FB1E11A2FB0E75D7EBC020A941F4
:1032100003D2AEF1010E80185941890241EA905162
:10322000760546EA8E2EB1FBF3F603FB1611A2FBE0
:103230000675D7EB8020A94102D2761E801859412D
:10324000C90241EA50514EEA060EB1FBF3F603FB08
:103250001611A2FB0675D7EBC020A94102D2761E3B
:1032600080185941C90241EA5051B1FBF3F703FB01
:103270001711A2FB0735D3EBC020A94167F1000766
:103280000CBF004247F0010766F3D5274FEA1E3115
:10329000B80814F5806412DDBD0775F1004250EBEB
:1032A0000E5051EB045111F5801F5CBF41EA0C0137
:1032B000F0BD4CF07F6141F0E0410020F0BDBD0762
:1032C0006D0840EA0E5041F48011D4F10104B4F1CC
:1032D00020060ADAC4F120060200E04001FA06F3F3
:1032E000E1401843B24015430EE0342C13DCC6F124
:1032F000200445EA40056D0820FA06F2154321FA3C
:1033000006F0A1400D43002175F1004250F100008C
:1033100051EB0C01F0BD00205FEA0C01F0BDCFB90C
:1033200092185B41B3FA83F704BFB2FA82F6BF1971
:103330000B3FB7F120062FBF02FA06F3BB40C7F1DF
:10334000200622FA06F638BF3343BA401CB1E4190E
:10335000641E33E77F4231F00041B1FA81F404BFCB
:10336000B0FA80F6A4190B3CB4F120062FBF00FA86
:1033700006F1A140C4F1200620FA06F638BF314319
:10338000A0403C1B1AE7AC421ABF05EA1357AF42F4
:1033900012E050EA41061CBF52EA4306BFE750EA7A
:1033A0004107304661461CBF41EA0551F0BD52EA73
:1033B000430C08BFC143F0BD00204FF4001616EBCC
:1033C000410F98BF16EB430F08BF16EB410F24BF08
:1033D000C14305E016EB430F0CBF61464CEA0551B3
:1033E000F0BD0000400D491840EA81200CD2490D83
:1033F000A1F58061491C40F0004005DBD1F11F01BF
:1034000054BFC840C017704700207047014648B1FC
:10341000B0FA80F18840C91CC1F58461090501EB4F
:10342000D0214005704700007047000070B44FF095
:10343000004591EA030F7FF547AE6B40841A71EBAC
:10344000030604D26E40001BB141121973414FF4C0
:10345000001C1CEB410F34BF7CEB430683E00C0DDA
:10346000A4EB1356362E00F37C80012E45EAC323CD
:1034700041DC43EA525312BFD20292025B08240598
:1034800045EAC12141EA5051D2EBC020994125D4EF
:1034900007D1B0FA80F610FA06F162D0002020368B
:1034A00008E0B1FA81F6B140C6F1200220FA02F23A
:1034B0001143B0404FEAF474B4EB465434F00106C3
:1034C0004FEA74040AD8D6F50016760D04F00044CD
:1034D000F04061FA06F25040F1404840C00A40EA2C
:1034E000415021F0004128BF5FEA500550F1000033
:1034F00044EBD12135E0DB0A45EAC121C90AB6F126
:1035000020050EDD42EA0242120CC5F1200603FA44
:1035100006F6EB4042EA06056D42984161F1000172
:103520000DE062FA06F5F240554063FA06FC82EAC5
:103530000C02F3405A406D42904161EB030111F4DB
:10354000801F05D1641E620502D06D0040414941D3
:1035500021F48011430875F1004350F1000041EB64
:10356000045170BC70471CEB410F15D223F000438F
:1035700052EA43060BD04FEA4C0CBCEB410F04D887
:103580000C0D661E342EB7DDEBE7801A994150EA28
:10359000410608BF0021E4E708BF1CEB430F28BF2A
:1035A0006FF00001DDE700000EB418B504000898C4
:1035B000012817D1A06B30F48030A063E168DFF8F8
:1035C000C0080140E160E06830F44010E0600F980E
:1035D000012803D1E06850F48010E060200000F082
:1035E000EDFE12E0E06850F04000E060200000F0E6
:1035F000E5FE0C99002904D1A16B51F48031A1633F
:1036000003E0A16B31F48031A1630699012907D150
:10361000A16851F00601A160A16851F02001A160EC
:10362000C0B212BC5DF810FB1300DBB2022B52D10A
:10363000DFF850288A1ADFF850389A4201D20F2159
:103640004FE0DFF848288A1ADFF844389A4201D25E
:103650000E2146E0DFF83C288A1ADFF83C389A420F
:1036600001D20D213DE0DFF834288A1ADFF8303826
:103670009A4201D20C2134E0DFF828288A1ADFF8B8
:1036800028389A4201D20B212BE0DFF820288A1A31
:10369000DFF81C389A4201D20A2122E0DFF8142810
:1036A0008A1ADFF814389A4201D2092119E0DFF8AA
:1036B0000C288A1ADFF808389A4201D2082110E053
:1036C000DFF80028891ADFF80028914201D207218B
:1036D00007E0062105E0D2B2002A01D1092100E06D
:1036E0000921C26832F47052C260C268890211F4C2
:1036F00070511143C16000207047816851F0010191
:10370000816000207047816849084900816000207D
:10371000704780B5C26832F0C042C2600A00D2B2BF
:10372000012A08D1C16851F00051C160322000F077
:103730006DFE002002BDC9B2002904D1C16851F05C
:103740008041C160F2E70120F4E70EB478B50400CF
:1037500000252600002005E0002104EB8002C2F8CD
:103760000411401C0F28F7D30F9800280CD1A06B30
:1037700050F40010A063A06B30F40020A063A06B95
:1037800030F48020A06307E0206830F4001020604F
:10379000A06B50F40020A063002016F56061086063
:1037A00016F50060006816F5006108600A980128A7
:1037B0000CD10798002804D10021200000F0E7F880
:1037C00008E00121200000F0E2F803E003212000DE
:1037D00000F0DDF81021200000F0B9F8002800D03A
:1037E0000125200000F0C4F8002800D001250020A9
:1037F00016F500610861002016F50061486100209F
:1038000016F50061C86100201BE0002116EB401294
:1038100012F51062116006E05FF0904116EB401265
:1038200012F51062116016EB401111F510610022C3
:103830000A6116EB401111F510614FF67F328A6074
:10384000401C0599884210D216EB401111F5106109
:1038500009680029D9D50028DED15FF0006116EB98
:10386000401212F510621160DDE700201BE000211C
:1038700016EB401212F53062116006E05FF09041E5
:1038800016EB401212F53062116016EB401111F583
:10389000306100220A6116EB401111F530614FF6DC
:1038A0007F328A60401C0599884210D216EB401185
:1038B00011F5306109680029D9D50028DED15FF003
:1038C000006116EB401212F530621160DDE716F56B
:1038D0000060006930F4807016F500610861089896
:1038E00001280ED1DFF8080B16F50061086316F504
:1038F0000060006B40F4803050F0030016F5006665
:1039000030630020A0617FF080406061089800284B
:1039100003D1A06950F01000A061A169DFF8D40ABA
:103920000143A1610B98002803D0A06950F0080062
:10393000A0610F98012805D1A06940F0804050F0A7
:103940000400A0612800C0B272BC5DF810FB002228
:10395000890151F020010161521CDFF89C1A8A4252
:1039600004D201698906F7D4002070470320FCE7E0
:10397000002110220261491CDFF87C2A914204D206
:103980000269D206F7D4002070470320FCE710F547
:1039900000621268C9B2114310F500600160002096
:1039A000704710F50060806810F00600002801D113
:1039B000002006E0022801D0062801D1022000E004
:1039C0000F20C0B2704730B40A784B78012B2BD14E
:1039D00010F50063DB6901240D7815F00F05AC408C
:1039E000A4B2234310F50064E36110EB421313F516
:1039F00010631B681B0440D410EB421313F51063D3
:103A00001B688C686405640DC97854EA814454EAE3
:103A1000825444F0805454F40044234310EB421089
:103A200010F51060036028E010F50063DB690124E5
:103A30000D7815F00F05AC4053EA044310F500640F
:103A4000E36110EB421313F530631B681B0414D4BD
:103A500010EB421313F530631B688C686405640D2A
:103A6000C97854EA814444F0805454F40044234318
:103A700010EB421010F530600360002030BC70473E
:103A800030B40A784B78012B28D1012310F500645B
:103A9000E46B0D7815F00F0513FA05F5ADB2AC43E4
:103AA00010F50065EC6310F50064E469097811F025
:103AB0000F018B409BB234EA030310F50061CB6128
:103AC00010EB421111F510610B68DFF830190B4053
:103AD00010EB421010F51060036026E0012310F592
:103AE0000064E46B0D7815F00F0513FA05F534EA60
:103AF000054410F50065EC6310F50064E46909788D
:103B000011F00F018B4034EA034410F50061CC61E1
:103B100010EB421111F530610B68DFF8E4180B402F
:103B200010EB421010F530600360002030BC70478D
:103B3000F8B504000D784B78012B40F005814B69F6
:103B4000002B24D114EB451313F5106314EB451629
:103B500016F5106636696FF3DC461E6114EB4513EB
:103B600013F5106314EB451616F51066366956F416
:103B700000261E6114EB451313F5106314EB451674
:103B800016F510663669F60CF6041E615AE014EB61
:103B9000451313F5106314EB451616F510663669D8
:103BA000F60CF6041E6114EB451313F5106314EBC9
:103BB000451616F5106636696FF3DC461E6114EB88
:103BC000451616F5106614EB451313F510631F69BF
:103BD000D1F814C08B6813EB0C0CBCF1010C8B6892
:103BE000BCFBF3F3DFF81CC81CEAC34C5CEA070714
:103BF000376114EB451313F5106314EB451616F5F6
:103C0000106636694F697F037F0B3E431E61CB7898
:103C1000012B17D114EB451313F5106314EB451664
:103C200016F51066366936F0C0461E6114EB451372
:103C300013F5106314EB451616F51066366956F049
:103C400000561E611300DBB2012B36D10869002833
:103C500005D014EB451010F510600A694261C87870
:103C600001281DD114F500608068C0050CD414EB48
:103C7000451010F51060006850F0005014EB45112D
:103C800011F5106108600BE014EB451010F51060A1
:103C9000006850F0805014EB451111F51061086078
:103CA00014EB451010F51060006850F0044014EB60
:103CB000451414F510642060DFE014EB451313F590
:103CC00010631B6853F0044314EB451616F5106699
:103CD0003360CB78012B10D04869002800F0CD80EC
:103CE00014F50060406B0122097811F00F018A4041
:103CF000104314F500646063BFE014F500639B6833
:103D0000DB050CD414EB451313F510631B6853F05B
:103D1000005314EB451414F5106423600BE014EB0E
:103D2000451313F510631B6853F0805314EB4514CF
:103D300014F510642360D2B200924B699BB20A78EA
:103D4000C96800F0B1F998E014EB451010F5306047
:103D500014EB451313F530631B69DB0CDB040361C3
:103D600014EB451010F5306014EB451313F5306378
:103D70001B696FF3DC430361486900281AD114EB17
:103D8000451010F5306014EB451313F530631B69D3
:103D90008E687603760B3343036114EB451010F500
:103DA000306014EB451313F530631B6953F40023A3
:103DB000036129E04B698868C3185B1E8868B3FB00
:103DC000F0F014EB451313F5306314EB451616F5BC
:103DD000306636690700BFB2DFF828C61CEAC74C58
:103DE0005CEA06061E6114EB451313F5306314EB11
:103DF000451616F5306636698F6880B200FB07F00D
:103E00004003400B30431861D2B2012A08D1C86880
:103E1000002805D014EB451010F53060CA684261E7
:103E2000C87801281DD114F500608068C0050CD445
:103E300014EB451010F53060006850F0005014EBA2
:103E4000451111F5306108600BE014EB451010F5D9
:103E50003060006850F0805014EB451111F530616E
:103E6000086014EB451010F53060006850F0044015
:103E700014EB451414F5306420600020F2BD0000FE
:103E8000BFFFBDFFC0ACD80000350C00C0E1E400AE
:103E900040420F000024F400804F1200807306019E
:103EA00020D61300A0491A0160E31600002D31014D
:103EB00040771B0040A44C01C091210000366E01E8
:103EC0002075380020ABA601E09C410070B40B00C7
:103ED0001C785978012940F095805969002924D12E
:103EE00010EB441111F5106110EB441515F5106538
:103EF0002D696FF3DC450D6110EB441111F5106174
:103F000010EB441515F510652D6955F400250D616C
:103F100010EB441111F5106110EB441515F5106507
:103F20002D69ED0CED040D6137E010EB441111F536
:103F3000106110EB441515F510652D69ED0CED04BD
:103F40000D6110EB441111F5106110EB441515F5DE
:103F500010652D696FF3DC450D6199685D69A942B3
:103F600001D29968596110EB441111F5106110EB01
:103F7000441515F510652D6955F400250D6110EBFC
:103F8000441111F5106110EB441515F510652D69FC
:103F90005E697603760B35430D61D2B2012A15D1E5
:103FA0001969002905D010EB441111F510611A6947
:103FB0004A6110EB441111F51061096851F0044198
:103FC00010EB441010F5106001606AE010EB441132
:103FD00011F51061096851F0044110EB441212F51B
:103FE00010621160596900295BD010F50061496BBE
:103FF00001221B7813F00F039A40114310F5006063
:1040000041634EE010EB441111F5306110EB4415A3
:1040100015F530652D69ED0CED040D6110EB4411C3
:1040200011F5306110EB441515F530652D696FF30E
:10403000DC450D615969002901D09968596110EB7F
:10404000441111F5306110EB441515F530652D69FB
:1040500055F400250D6110EB441111F5306110EBA2
:10406000441515F530652D699E687603760B35434A
:104070000D61D2B2012A08D1D968002905D010EB10
:10408000441111F53061DA684A6110EB441111F501
:104090003061096851F0044110EB441010F53060B4
:1040A0000160002070BC7047F0B4049CE4B2002CA6
:1040B00013D19BB2DB1C9B0800250CE00C0026688A
:1040C0001700FFB24FF4805404FB070717F5805721
:1040D0003E60091D6D1C9D42F0D30020F0BC70476E
:1040E00030B492B2D21C9208002306E010F580543E
:1040F00024680D002C60091D5B1C9342F6D3080058
:1041000030BC7047020008784978012921D112EBB0
:10411000401111F51061096800290DD400280BD059
:1041200012EB401111F51061096831F0804112EB7A
:10413000401313F51063196012EB401111F5106173
:10414000096851F4001112EB401212F5106211606F
:1041500020E012EB401111F53061096800290DD4FF
:1041600000280BD012EB401111F53061096831F0D5
:10417000804112EB401313F53063196012EB4011CC
:1041800011F53061096851F4001112EB401212F57B
:10419000306211600020704710B40A784B78012B10
:1041A0001ED110EB421313F510631B6833F4001398
:1041B00010EB421414F510642360CB78032B02D06B
:1041C000C97802292AD110EB421111F51061096852
:1041D00051F0805110EB421010F5106001601DE0AD
:1041E00010EB421313F530631B6833F4001310EB2C
:1041F000421414F530642360CB78032B02D0C978C5
:1042000002290BD110EB421111F53061096851F010
:10421000805110EB421010F530600160002010BC9E
:10422000704710F50062126832F4FE6210F5006308
:104230001A6010F500621268C9B2090111F4FE613A
:10424000114310F5006001600020704780B510F543
:104250000061496831F0020110F5006041600320FF
:1042600000F0D4F8002002BD80B510F50061496867
:1042700051F0020110F500604160032000F0C6F823
:10428000002002BD010048698969084070470100AB
:1042900011F50060806911F50061C9690840000CE2
:1042A0007047010011F50060806911F50061C9696E
:1042B000084080B270470200C9B212EB411010F5FD
:1042C0003060806812F5006251690840704710B490
:1042D00010F50062126910F500635B6B11F00F04BA
:1042E000E340DB0113F080031A43C9B210EB411025
:1042F00010F510608068104010BC7047406910F0E5
:104300000100704710F510610968C90AC90210F56B
:104310001062116010F50061896811F0060104292E
:1043200007D110F51061096851F0030110F5106212
:10433000116010F50061496851F4807110F500605A
:1043400041600020704710B40300006CDFF8B840F3
:10435000A04206D313F530600068002801D5002084
:104360002AE0002013F53064206113F53060006905
:1043700050F4002013F53064206113F530600069BB
:1043800050F0180013F53064206113F530600069B7
:1043900050F0C04013F530642061C9B201290AD140
:1043A00013F53060426113F53060006850F08020F2
:1043B00013F530631860002010BC70470021491CC1
:1043C0000D4A91420FD20369002BF8D500210369F1
:1043D00053F001030361491C914206D20369DB07D4
:1043E000F9D4002070470320FCE70320FAE700001F
:1043F0000001800000383C80410D0300007833EC60
:104400000078F3EF0000F81F0B30544F38B504006C
:1044100000F010F8050014F1010F02D004480078F4
:10442000241800F007F8401BA042FAD331BD00BFAA
:104430004903002001480068704700BFBC190020F4
:1044400003460846C1680269491C521E002A0261DF
:10445000C16003D400680122002118474FF0FF30EB
:104460007047034608461146C268521E11F1010FFB
:10447000C26002D000680022184770472DE9F04F53
:104480000FF2E01E8BB0DEE90067CDE90167039112
:104490004FF0FF381C68149DDFF81C9604948DF8CB
:1044A0002B500024069405920446464609E0002E4F
:1044B0009DF82A0048BF002600B1761C05994A1CC9
:1044C00005920021009101AB059942466846FEF72E
:1044D000CAF90028074605DC059801784F1EBF4140
:1044E000FF43FF0F009800F0D7FE00F0F3FE28B363
:1044F0000698401C0690012203980021A04782469E
:1045000000F0E8FE0028F3D10699491E1AF1010FC8
:1045100000F0A2800691002203985146A04705981A
:104520000099C0192529059027D100782A282AD179
:104530000598401C059010F8011D25E00098DDF855
:1045400014A025280CBFA7F1010BBB46BBF1010B42
:10455000E5D40698401C0690012203980021A0474C
:104560001AF8011B8842F1D0024603A92046FFF742
:1045700078FF0020B0426EDA6CE000980028A0D1ED
:10458000B04268DA66E000218DF828100021089119
:104590000AE00898484505DA00EB800301EB430187
:1045A00030390891501C0590059A1178A1F130001E
:1045B0000A28EED3CDF824802CA01178FEF762F9FA
:1045C00020B10598401C0590401E00788DF8290008
:1045D0009DF82900682805D10599087868280CD12C
:1045E000622206E06C2802BF059908786C2804D185
:1045F0007122491C8DF829200591059801780FF644
:104600002C40FEF73FF9A8B90698401C06900122FD
:1046100003980021A047074600F05CFE0028F3D174
:104620000698401E17F1010F069003D00398002250
:104630003946A04703A9204600F01FF800283FF79D
:1046400036AF25B110F1230F01D1404612E0002E04
:1046500048BF064630460DE0304600280691FAD5A0
:10466000F3E700000000000000000000686A6C74BE
:104670007A4C00000BB0BDE8F08F70B505460C46D3
:104680000020A368A0771E78253E6ED01C3E25D062
:10469000361F022E22D90E3E63D0761F1AD0F61E88
:1046A0007CD0B61F1AD0B61E12D0761E12D0761E3F
:1046B000022E13D9361F0DD0761F13D0761E012E71
:1046C00008D9361F4FD0B61E04D0F61E02D070BDDA
:1046D000002265E02846BDE87040EFE12846BDE8CD
:1046E0007040FDE2207F002849D1607F622808D019
:1046F00068281CD06A280ED06C2821D071280AD0D6
:104700001EE06168616051F8040B616000281DD0F3
:10471000E168017033E06168616051F8040B616029
:10472000002813D0E268D317C0E9002327E06168AE
:10473000616051F8040B616040B1E16801801EE0E6
:104740006168616051F8040B616038B90FF6E420CC
:10475000FEF7B6F84FF0FF34201A70BDE168016033
:104760000DE06C20607701221AE0E068401CE060F8
:10477000012220680021A8470646252E01D10120EC
:1047800070BD324621462846FFF76BFE16F1010F39
:1047900002D14FF0FF3070BD002070BD4FF0FF32EE
:1047A0002846BDE8704021E0C9B208E0037899428C
:1047B000A4BF90F802C08C4514DAC01CD21E032A94
:1047C00009D343782D2BF1D010F801CB8C4518BFBD
:1047D000521EF4D106E03AB110F8013B8B4218BFEB
:1047E000521EF8D101207047002070472DE9F84F84
:1047F0008AB00D46002607968246697F05926C298D
:104800000CBF4FF0010BB3460FF64422D2E9000172
:10481000059ACDE90301002A29D5A868411CA960A1
:10482000084601785E2903BF401CA86010F8014DBE
:104830000024D5F8088098F800005D280CBF08F126
:10484000010040465D21FEF71DF8002800F01A81A6
:10485000A0EB08010091A8600098032807DB821EE6
:104860002D2108F10100FEF775F800B101266869F5
:10487000002805DC0598002814BF6FF000400120D7
:104880002861287FE0B968686860BBF1000F0168A3
:104890000AD0001D6860019191B94FF0FF3485483E
:1048A000784400F504701BE0001D6860029139B97E
:1048B0008048784400F5FF704FF0FF3428300FE057
:1048C000287FB0B9E87FA0B16968696051F8040B2E
:1048D0006960B0F1004F07D34FF0FF340FF6781046
:1048E000FDF7EEFF201AC5E6A969884288BF084691
:1048F000A861089409960027DDF81490029C079E91
:10490000CDF814B0CDF81880DDF804B007E004F855
:10491000018B0120A877A969491EA961022629698E
:10492000491E2961E868401C002900F1B780E86051
:10493000012228680021D047804618F1010F19D1C3
:104940005346DDF814A0424629461846FFF789FD74
:10495000B9F1000F03D0F0B2022800F08F80F0B25E
:10496000022800F09980F0075AD418F1010F40F0A6
:10497000898055E0B9F1000F02DD00F0ABFC10E0DA
:104980001FD50998002808980ED10028009A06988B
:10499000414604D1FDF7DEFF0028D1D011E0FDF73C
:1049A000D9FF0028CCD10CE00028009A0698414697
:1049B00003D1FFF7F9FE20B9C2E7FFF7F5FE0028A3
:1049C000BED1059850B9287F0028A7D1A869002832
:1049D0009DD15346DDF814A00126B4E702A8014694
:1049E000079001F807807F1C03AB3A4601A8FDF74A
:1049F0003AFF811C02291CD8DFE801F002061500ED
:104A0000042F46F001068AD3002F4EDD0798EA688E
:104A10007F1E521EC15DEA6000222868D047F3E77E
:104A20004FF0FF3026E6019919B902A8FDF768FF9B
:104A3000401C10F1030F08BF0020064608E007984D
:104A4000EA687F1E521EC15DEA6000222868D047D6
:104A5000BE42F4DB287F58B9A86908B901265EE791
:104A600001984BF8040B0121A977A869401EA861A1
:104A700002266869401E6861002750E7287F58B900
:104A8000A86908B90020F5E5BAF1000F19BF0020A8
:104A9000CBF80000002121700120EBE55346DDF842
:104AA00014A0E8604FF0FF384DE7F6B2002EB7D003
:104AB000E8E700BFE45E0000CBCCCC0C2DE9F84564
:104AC0000D4688B0804668690028D8BF6FF0004066
:104AD0002861EA464046FFF7B3FC2B2818BF2D2873
:104AE00007D18DF8000029464046FFF7A9FC0DF1DB
:104AF000010AA96809780022642914BF75290A24CB
:104B00000DD0692908BF002409D06F2908BF0824E7
:104B100005D070291ABF41F02001782910243028CF
:104B200017D129464046FFF78BFC40F020010126B3
:104B3000C9B278290AD1002C18BF102C13D12946EC
:104B40004046FFF77DFC102400260CE05CB90824E9
:104B500009E004B90A24564601461AE028680122F1
:104B60000021C0470126302840F0AB80E868296961
:104B7000401C491E00292961E860EFD54FF0FF3045
:104B80000122A2E0E960012228680021C047014615
:104B9000012211F1010F00F09C80C8B26128A8BF6A
:104BA000A1F157030ADA4128A8BFA1F1370305DABA
:104BB00030380A2834BFA1F13003FF23DBB2E0B262
:104BC000834280F086800DF11F00864238BF06F8D0
:104BD000011BE9682869491C401E00282861D1D5BD
:104BE0004046E9604FF0FF38012742462946FFF76B
:104BF00038FC3FB96E450ABF18F1010F00204FF095
:104C0000FF306AE000213170287F002857D1A86862
:104C10000078642818BF692811D12246684600F040
:104C2000AFFB6B7F0122622BAA771ED0682B2FD09F
:104C30006A2B23D06C2B33D0712B1FD030E022464F
:104C4000684600F077FC0122AB68AA771A78702AD0
:104C500026D06A7F622A08D0682A19D06A2A0DD025
:104C60006C2A1DD0712A09D01AE06B686B6053F86A
:104C7000042B6B60002A19D0107020E06B686B6009
:104C800053F8042B6B60002A10D0C2E9000116E033
:104C90006B686B6053F8042B6B603AB110800EE0C8
:104CA0006B686B6053F8042B6B603AB90FF2C85015
:104CB000FDF706FE4FF0FF35281A0EE010600120C8
:104CC0000BE0324611003FF446AF30210AF8011BD9
:104CD00041E740468846174687E709B0BDE8F085BA
:104CE0002DE9F84F0E4692B071690029D8BF6FF0D8
:104CF0000041316181463146FFF7A2FB00272B2896
:104D000018BF2D280DF10C0807D18DF80C00314685
:104D10004846FFF795FB0DF10D080A2130288DF864
:104D20000010BA461BD131464846FFF789FB40F0D8
:104D30002001C9B2782903D04FF0010A5146CAE0D8
:104D4000302088F8000088F8011048463146FFF707
:104D500077FB102108F102088DF80010EEE740F013
:104D60002001CAB26E2A52D18DF800A06E2108F837
:104D7000011B48463146FFF763FB044644F0200020
:104D8000C0B2612840F02482612108F8011B484626
:104D90003146FFF755FB044644F02000C0B26E28B0
:104DA00040F0168231464846FFF74AFB0246282A61
:104DB00000F0D48131464846FFF753FB6E2008F8D7
:104DC000010B002188F80010307F002840F0C481DA
:104DD0009DF800000B280B4680F277813A4603A825
:104DE00000F04AFD96E14FF0FF35284600F030FE16
:104DF00000282C4640F0B281303D0A2DC0F0AE8133
:104E00005F2C00F0AB81292C40F0E281D6E7C9B2DB
:104E1000692940F0B8818DF800A008F8011B4846C8
:104E20003146FFF70DFB044644F02000C0B26E2867
:104E300040F0CE816E2108F8011B48463146FFF74D
:104E4000FFFA044644F02000C0B2662840F0C0815A
:104E500031464846FFF7F4FA40F02001C9B269290B
:104E600006D0024631464846FFF7FBFA6620A6E721
:104E700031464846FFF7E4FA044640F02000C0B24D
:104E80006E2840F0A58131464846FFF7D9FA04461E
:104E900040F02000C0B2692840F09A81314648466F
:104EA000FFF7CEFA044640F02000C0B2742840F06C
:104EB0008F8131464846FFF7C3FA044640F0200090
:104EC000C0B2792840F08481662078E730680122FA
:104ED0000021C8470121302840F04F813169491E27
:104EE0003161F068401C0029F060EFD54FF0FF30D1
:104EF0004FF0010A44E1F160012230680021A84727
:104F0000012210F1010F00F04481C3B2612BA8BF50
:104F1000A0F157010ADA412BA8BFA0F1370105DA49
:104F2000303B0A2B34BFA0F13001FF219DF8003047
:104F3000C9B2994280F02D81242CBABF0BF8010B25
:104F4000641C09F101093069401E3061F168491C97
:104F50000028D0D502950196F16001204F464FF010
:104F6000FF358DF80100FDF786FC406A01788D421F
:104F700006D10BF8015B01990298FFF761FA05462B
:104F800034BBDDF80890019E9DF8012006E0F16039
:104F9000012230680021C84705460122302D40F02B
:104FA000FF803069401E30617F1EF168491C002877
:104FB000EDD5CDF808900196F16001204FF0FF3556
:104FC0008DF80100002F03D530200BF8010B7F1C5A
:104FD0002846DDF80890019E9DF800509DF80110CC
:104FE00005E0F060012230680021C847012110F17E
:104FF000010F00F0DB80C3B2612BA8BFA0F1570204
:105000000ADA412BA8BFA0F1370205DA303B0A2BA0
:1050100034BFA0F13002FF22D2B2AA4280F0C68093
:10502000242CBCBF0BF8010B641C3169491E316193
:10503000F068401C0029D4D58DF80050D846F060A7
:105040004FF0FF344FF0010AB7E0702840F0C08005
:1050500008F8014B31464846FFF7F2F92B2818BFF4
:105060002D2805D108F8010B31464846FFF7E8F92D
:10507000002104E0306801220021C84701213028C6
:1050800040F0B8803169491E3161F068401C002948
:10509000F060EFD54FF0FF300121ADE0284612E07F
:1050A000BBF1080FBCBF04F8010B0BF1010B316918
:1050B000491E3161F068401C0029F060EED4306870
:1050C00001220021C84701219EE0002203A800F030
:1050D000D3FB0C46BA0063005B0D02EB030711D053
:1050E000002F0FDD40F2FF72974206DB4C4B01F0C0
:1050F000004040EA030100200CE06FF31E5444EA34
:10510000075107E020F0000531F000430CBF002DEF
:10511000FDF704FF0122B277727F6C2A18BF4C2A78
:1051200008D17368736053F8042B736042B1C2E90D
:10513000000111E07268726052F8044B726044B969
:1051400036487844D630FDF7BBFB4FF0FF34201AC9
:1051500068E000F087FC2060012063E03169491EAF
:105160003161F068401C0029F0603FF53CAE3068CA
:1051700001220021C847054637E65FEA010A02D04E
:10518000302108F8011B4D460024C346B94652465B
:10519000B7E60295019605464F468DF80120E2E6F6
:1051A000CDF8089001968DF801200BE75FEA010A1F
:1051B000D84604468DF800500AD09DF8001044F0FF
:1051C00020000A29C0B27FF440AF65283FF440AF09
:1051D000224631464846FFF744F9BAF1000F7FF402
:1051E000F0AD03A880450ABF14F1010F00204FF075
:1051F000FF3017E00A0002D0302208F8012B4FF0F0
:10520000000B4FF0FF354446A0F130020A2AFFF4AC
:1052100047AFA04604468A46DAE700BF6058000060
:105220000000F07F13B0BDE8F08F000063436E5BB9
:10523000000000007363616E665F733A2062616410
:1052400020256E20617267756D656E740000000028
:1052500000000000000000007363616E665F733A37
:10526000206261642025632C2025732C206F72201E
:10527000255B2073697A65007363616E665F733ABC
:105280002062616420696E7465676572206172676F
:10529000756D656E7400000000B5014611F1010FD7
:1052A00083B00AD009A0D0E90023CDE901236846E4
:1052B00001AAFDF7DEFA012803D04FF0FF3003B05A
:1052C00000BD9DF8000003B000BD0000000000001C
:1052D0000000000010B50446FDF770FA01462046B4
:1052E000096ABDE8104008472DE9F8430D008046E3
:1052F00091461E4608BF6D46444600E0641C207877
:10530000FFF7E8FF0028F9D120782D2816BF2B28B9
:1053100014F8017B2B2733464A462946204600F0E5
:1053200033F82A68944205D1C5F800800020002196
:10533000BDE8F4832B2F05D14FF00043994209D2E9
:10534000BDE8F4832D2FFBD1B1F1004F12D301D86A
:1053500001280FD3AFF300800EB1012030602D2F54
:1053600019BF4FF0FF306FF0004100204FF00041B7
:10537000BDE8F483404261EB4101BDE8F4830000E5
:1053800000BF0023B0E700002DE9FC4F85B00C46BC
:1053900093460BB100221A600290824601E00AF1A6
:1053A000010A9AF80000FFF795FF0028F7D19AF854
:1053B00000002D2818BF2B2807BF1AF8010B8DF805
:1053C00000002B218DF80010BBF1000F019405D4D3
:1053D000BBF1010F02D0BBF1250F04DB002C71D013
:1053E000029820606EE0BBF1000F0DDDBBF1100FE5
:1053F00004BF9AF80000302802BF9AF8010040F07C
:105400002000782814D10EE09AF80000302818BF48
:105410004FF00A0B0CD19AF8010040F020007828D8
:1054200004D14FF0100B0AF1020A01E04FF0080B13
:10543000CDF810A001E00AF1010A9AF80000302826
:10544000F9D009487844203000242830002500266F
:105450000027CDF80CA0A0468DF80100DFF80890D9
:10546000F94409F1040918E0E05400009DF8011026
:10547000401A5FFA80F85846A0FB06234FEAEB710A
:1054800000FB073301FB0633344600213D4612EB97
:10549000080643EB01070AF1010A9AF8000000F040
:1054A00015FB01465A4609F12800FDF753FA00287A
:1054B000DCD1049951455A4607D1019810B10199A0
:1054C000029808600020002130E0039919F80200DA
:1054D000AAEB0101081A00281BD410DC0023B6EB4C
:1054E000080067EB03018F4209D301D8864206D337
:1054F000D317FDF7C1FAA94208BFA04209D0AFF304
:105500000080069808B1012101604FF0FF36374650
:1055100006E09DF800002D2802D1764267EB470790
:10552000019808B1C0F800A03046394607B0BDE880
:10553000F08F000000BF002326E700002DE9B04CEB
:1055400041EC100B2DED028B43EC182B53EC102B80
:1055500023F00041B1F5801F82B00DD20022002956
:1055600008BF0028009216D06A4651EC100BFDF7D8
:105570006DFC41EC100B0EE0DFF89044DFF8907406
:1055800004EB115000903B40DFF88804924643EA58
:10559000000B4BEC10AB53EC102B51EC180BFDF740
:1055A00083FB41EC100B4800009A400D1218C8B163
:1055B000002A17DD40F2FF70824209DB9FEDAA1B33
:1055C00053EC112B01F000410B4343EC102B17E07F
:1055D0006FF31E5141EA025155EC104B0D4645EC5C
:1055E000104B0DE051EC100B31F0004108BF0028CA
:1055F00006D0009A51EC100BFDF790FC41EC100B1B
:1056000062E000002DE9B04C41EC100B2DED028B57
:1056100043EC182B53EC102B23F00041B1F5801F05
:1056200082B00DD20022002908BF0028009216D0B7
:105630006A4651EC100BFDF709FC41EC100B0EE033
:10564000DFF8C843DFF8C87304EB115000903B400B
:10565000DFF8C003924643EA000B4BEC10AB51EC71
:10566000100B53EC182BFDF799FD41EC100B480083
:10567000009A400D1218C8B1002A17DD40F2FF70E1
:10568000824209DB9FED781B53EC112B01F00041A6
:105690000B4343EC102B17E06FF31E5141EA02510C
:1056A00055EC104B0D4645EC104B0DE051EC100B3A
:1056B00031F0004108BF002806D0009A51EC100BD1
:1056C000FDF72CFC41EC100B02B051EC100BBDECC3
:1056D000028BBDE8B08C0000F8B52DED028B002ADE
:1056E00041EC180B1D4600F0B78020F0000631F0A9
:1056F000004708BF002E00F0AF8048004015401C56
:1057000002D1090300F0A880002A9FED590B18D59B
:105710005242544F7F4407F5A67708261446002CC2
:1057200018BF002E55D0E00707D5D7E9002351EC6C
:10573000100BFDF7B9FA41EC100B64080837761E20
:10574000EDE773DD474F7F4407F58D770826144654
:10575000E00707D5D7E9002351EC100BFDF7A4FAB9
:1057600041EC100B64100837761E002C01DD002E72
:10577000EED153EC102B51EC180BFFF7DFFE20F0AD
:10578000000231F0004308BF002A41EC180B4DD055
:1057900048004015401C01D1090347D0002C45DDCD
:1057A0009D4A9E4B51EC180BFFF7C8FE20F00002FB
:1057B00031F0004308BF002A41EC180B36D04800F6
:1057C0004015401C01D1090330D0641E002CE7DCD9
:1057D0002CE053EC102B51EC180BFFF713FF20F0CB
:1057E000000231F0004308BF002A41EC180B1DD025
:1057F00048004015401C01D1090317D0B4B1884AB4
:10580000904B51EC180BFFF799FE20F0000231F09D
:10581000004308BF002A41EC180B07D04800401590
:10582000401C01D1090301D0641EE8D151EC180BD2
:1058300020F0000231F0004308BF002A05D04800E4
:105840004015401C08D1090306D1AFF300801DB1FB
:10585000286840F00100286051EC180BBDEC028B69
:10586000F4BD00BF94510000000000000000F07F74
:10587000000000000000F03F2DE9F14D81B05FEA2B
:1058800003082DED028B84B01CBF0020C8F8000077
:10589000079D0C46934607A800F022F9C11020F09E
:1058A0000800012801F0010A30D10220009001AB6C
:1058B00007992246284600F0A5F9040008BF9FED8D
:1058C000620B1ED00298FDF7E5FB022C41EC100B99
:1058D00017DB03AF661E9FED538B51EC100B53EC9F
:1058E000182BFDF7E1F9044657F8040B0D46FDF7B8
:1058F000D1FB22462B46FDF799FD761E41EC100B9D
:10590000EBD10198434600EB0B025DE0022862D127
:10591000009001AB07992246284600F055FA040092
:1059200008BF9FED490B1ED00298FDF7B3FB022C78
:1059300041EC100B17DB03AF661E9FED3C8B51EC67
:10594000100B53EC182BFDF7AFF9044657F8040B76
:105950000D46FDF79FFB22462B46FDF767FD761EA1
:1059600041EC100BEBD151EC100B019A4800400DAB
:1059700002EB000319D0002B17DD40F2FF708342C9
:1059800009DB9FED2C1B53EC112B01F000410B4365
:1059900043EC102B16E06FF31E5141EA035155EC16
:1059A000104B0D4645EC104B0CE051EC100B31F058
:1059B000004108BF002805D051EC100BFDF7AEFAEE
:1059C00041EC100B43465A4651EC100BFFF784FE96
:1059D00041EC100B0AE0032808BF9FED160B05D021
:1059E00004280CBF9FED150B9FED170BBAF1000FAC
:1059F00005D051EC100B81F0004141EC100B04B0CC
:105A000051EC100BBDEC028BBDE8FC8D02FCFFFFDE
:105A1000FFFF0F800000E03F3CBF737FDD4F157537
:105A2000436FAC640000000065CDCD410000000074
:105A30000000B041000000000000F07FFFFFFFFF0A
:105A4000FFFFFF7F2806C80A0000000000000000DA
:105A500010B50446FCF7B2FE014620460969BDE8D0
:105A60001040084701F000428B1AA3F16051B1F5D4
:105A7000801F0ADBB1F17F6F1FD242EAC102C10071
:105A800071F1004142EB507070470B15C3F10903EF
:105A9000212B10D2890241EA90518002012849410C
:105AA00041F0004121FA03F0C3F12003994071F164
:105AB000004150417047100070476FF0000013EB39
:105AC000103F5CBF000E42EAC050704710B504465C
:105AD000FCF774FE01462046896ABDE8104008477D
